{
  "_format": "hh-sol-artifact-1",
  "contractName": "MessageBoard",
  "sourceName": "contracts/messageBoard.sol",
  "abi": [
    {
      "inputs": [],
      "stateMutability": "payable",
      "type": "constructor"
    },
    {
      "anonymous": false,
      "inputs": [
        {
          "indexed": true,
          "internalType": "address",
          "name": "from",
          "type": "address"
        },
        {
          "indexed": false,
          "internalType": "uint256",
          "name": "timestamp",
          "type": "uint256"
        },
        {
          "indexed": false,
          "internalType": "string",
          "name": "message",
          "type": "string"
        }
      ],
      "name": "NewMessage",
      "type": "event"
    },
    {
      "inputs": [],
      "name": "getAllMessages",
      "outputs": [
        {
          "components": [
            {
              "internalType": "address",
              "name": "user",
              "type": "address"
            },
            {
              "internalType": "string",
              "name": "message",
              "type": "string"
            },
            {
              "internalType": "uint256",
              "name": "timestamp",
              "type": "uint256"
            }
          ],
          "internalType": "struct MessageBoard.Message[]",
          "name": "",
          "type": "tuple[]"
        }
      ],
      "stateMutability": "view",
      "type": "function"
    },
    {
      "inputs": [],
      "name": "getTotalMessages",
      "outputs": [
        {
          "internalType": "uint256",
          "name": "",
          "type": "uint256"
        }
      ],
      "stateMutability": "view",
      "type": "function"
    },
    {
      "inputs": [
        {
          "internalType": "address",
          "name": "",
          "type": "address"
        }
      ],
      "name": "lastMessagedAt",
      "outputs": [
        {
          "internalType": "uint256",
          "name": "",
          "type": "uint256"
        }
      ],
      "stateMutability": "view",
      "type": "function"
    },
    {
      "inputs": [
        {
          "internalType": "string",
          "name": "_message",
          "type": "string"
        }
      ],
      "name": "message",
      "outputs": [],
      "stateMutability": "nonpayable",
      "type": "function"
    }
  ],
  "bytecode": "0x60806040526200004f6040518060400160405280601e81526020017f436f6e747261637420686173206265656e20636f6e73747275637465642e00008152506200007760201b620006391760201c565b606444426200005f9190620001c4565b6200006b919062000261565b60018190555062000308565b62000117816040516024016200008e919062000184565b6040516020818303038152906040527f41304fac000000000000000000000000000000000000000000000000000000007bffffffffffffffffffffffffffffffffffffffffffffffffffffffff19166020820180517bffffffffffffffffffffffffffffffffffffffffffffffffffffffff83818316178352505050506200011a60201b60201c565b50565b60008151905060006a636f6e736f6c652e6c6f679050602083016000808483855afa5050505050565b60006200015082620001a8565b6200015c8185620001b3565b93506200016e8185602086016200022b565b6200017981620002f7565b840191505092915050565b60006020820190508181036000830152620001a0818462000143565b905092915050565b600081519050919050565b600082825260208201905092915050565b6000620001d18262000221565b9150620001de8362000221565b9250827fffffffffffffffffffffffffffffffffffffffffffffffffffffffffffffffff0382111562000216576200021562000299565b5b828201905092915050565b6000819050919050565b60005b838110156200024b5780820151818401526020810190506200022e565b838111156200025b576000848401525b50505050565b60006200026e8262000221565b91506200027b8362000221565b9250826200028e576200028d620002c8565b5b828206905092915050565b7f4e487b7100000000000000000000000000000000000000000000000000000000600052601160045260246000fd5b7f4e487b7100000000000000000000000000000000000000000000000000000000600052601260045260246000fd5b6000601f19601f8301169050919050565b6111d580620003186000396000f3fe608060405234801561001057600080fd5b506004361061004c5760003560e01c806305c766d114610051578063147e91081461006d5780632ff4e6e41461008b57806353f5e380146100bb575b600080fd5b61006b60048036038101906100669190610a1b565b6100d9565b005b6100756104c7565b6040516100829190610e67565b60405180910390f35b6100a560048036038101906100a091906109f2565b6104d0565b6040516100b29190610e67565b60405180910390f35b6100c36104e8565b6040516100d09190610d1e565b60405180910390f35b42600f600360003373ffffffffffffffffffffffffffffffffffffffff1673ffffffffffffffffffffffffffffffffffffffff168152602001908152602001600020546101269190610f84565b10610166576040517f08c379a000000000000000000000000000000000000000000000000000000000815260040161015d90610e07565b60405180910390fd5b42600360003373ffffffffffffffffffffffffffffffffffffffff1673ffffffffffffffffffffffffffffffffffffffff1681526020019081526020016000208190555060016000808282546101bc9190610f84565b925050819055506102036040518060400160405280601881526020017f2573206861732073656e742061206d657373616765202573000000000000000081525033836106d2565b600260405180606001604052803373ffffffffffffffffffffffffffffffffffffffff16815260200183815260200142815250908060018154018082558091505060019003906000526020600020906003020160009091909190915060008201518160000160006101000a81548173ffffffffffffffffffffffffffffffffffffffff021916908373ffffffffffffffffffffffffffffffffffffffff16021790555060208201518160010190805190602001906102c29291906108d2565b50604082015181600201555050606444426102dd9190610f84565b6102e7919061108a565b60018190555061032e6040518060400160405280601681526020017f52616e646f6d20232067656e6572617465643a20256400000000000000000000815250600154610771565b603260015411610474576103776040518060400160405280600781526020017f257320776f6e21000000000000000000000000000000000000000000000000008152503361080d565b6000655af3107a40009050478111156103c5576040517f08c379a00000000000000000000000000000000000000000000000000000000081526004016103bc90610e27565b60405180910390fd5b60003373ffffffffffffffffffffffffffffffffffffffff16826040516103eb90610d09565b60006040518083038185875af1925050503d8060008114610428576040519150601f19603f3d011682016040523d82523d6000602084013e61042d565b606091505b5050905080610471576040517f08c379a000000000000000000000000000000000000000000000000000000000815260040161046890610e47565b60405180910390fd5b50505b3373ffffffffffffffffffffffffffffffffffffffff167f0ff94fec3112de81726d79117e091c7c9d47da8a38c73e8cec7ee350a61898a642836040516104bc929190610e82565b60405180910390a250565b60008054905090565b60036020528060005260406000206000915090505481565b60606002805480602002602001604051908101604052809291908181526020016000905b8282101561063057838290600052602060002090600302016040518060600160405290816000820160009054906101000a900473ffffffffffffffffffffffffffffffffffffffff1673ffffffffffffffffffffffffffffffffffffffff1673ffffffffffffffffffffffffffffffffffffffff16815260200160018201805461059590611058565b80601f01602080910402602001604051908101604052809291908181526020018280546105c190611058565b801561060e5780601f106105e35761010080835404028352916020019161060e565b820191906000526020600020905b8154815290600101906020018083116105f157829003601f168201915b505050505081526020016002820154815250508152602001906001019061050c565b50505050905090565b6106cf8160405160240161064d9190610d40565b6040516020818303038152906040527f41304fac000000000000000000000000000000000000000000000000000000007bffffffffffffffffffffffffffffffffffffffffffffffffffffffff19166020820180517bffffffffffffffffffffffffffffffffffffffffffffffffffffffff83818316178352505050506108a9565b50565b61076c8383836040516024016106ea93929190610d92565b6040516020818303038152906040527fe0e9ad4f000000000000000000000000000000000000000000000000000000007bffffffffffffffffffffffffffffffffffffffffffffffffffffffff19166020820180517bffffffffffffffffffffffffffffffffffffffffffffffffffffffff83818316178352505050506108a9565b505050565b6108098282604051602401610787929190610dd7565b6040516020818303038152906040527f9710a9d0000000000000000000000000000000000000000000000000000000007bffffffffffffffffffffffffffffffffffffffffffffffffffffffff19166020820180517bffffffffffffffffffffffffffffffffffffffffffffffffffffffff83818316178352505050506108a9565b5050565b6108a58282604051602401610823929190610d62565b6040516020818303038152906040527f319af333000000000000000000000000000000000000000000000000000000007bffffffffffffffffffffffffffffffffffffffffffffffffffffffff19166020820180517bffffffffffffffffffffffffffffffffffffffffffffffffffffffff83818316178352505050506108a9565b5050565b60008151905060006a636f6e736f6c652e6c6f679050602083016000808483855afa5050505050565b8280546108de90611058565b90600052602060002090601f0160209004810192826109005760008555610947565b82601f1061091957805160ff1916838001178555610947565b82800160010185558215610947579182015b8281111561094657825182559160200191906001019061092b565b5b5090506109549190610958565b5090565b5b80821115610971576000816000905550600101610959565b5090565b600061098861098384610ee3565b610eb2565b9050828152602081018484840111156109a057600080fd5b6109ab848285611016565b509392505050565b6000813590506109c281611188565b92915050565b600082601f8301126109d957600080fd5b81356109e9848260208601610975565b91505092915050565b600060208284031215610a0457600080fd5b6000610a12848285016109b3565b91505092915050565b600060208284031215610a2d57600080fd5b600082013567ffffffffffffffff811115610a4757600080fd5b610a53848285016109c8565b91505092915050565b6000610a688383610c9b565b905092915050565b610a7981610fda565b82525050565b610a8881610fda565b82525050565b6000610a9982610f23565b610aa38185610f46565b935083602082028501610ab585610f13565b8060005b85811015610af15784840389528151610ad28582610a5c565b9450610add83610f39565b925060208a01995050600181019050610ab9565b50829750879550505050505092915050565b6000610b0e82610f2e565b610b188185610f62565b9350610b28818560208601611025565b610b3181611177565b840191505092915050565b6000610b4782610f2e565b610b518185610f73565b9350610b61818560208601611025565b610b6a81611177565b840191505092915050565b6000610b82600883610f73565b91507f57616974203135730000000000000000000000000000000000000000000000006000830152602082019050919050565b6000610bc2603483610f73565b91507f547279696e6720746f207769746864726177206d6f7265206d6f6e657920746860008301527f616e2074686520636f6e7472616374206861732e0000000000000000000000006020830152604082019050919050565b6000610c28602783610f73565b91507f4661696c656420746f207769746864726177206d6f6e65792066726f6d20636f60008301527f6e74726163742e000000000000000000000000000000000000000000000000006020830152604082019050919050565b6000610c8e600083610f57565b9150600082019050919050565b6000606083016000830151610cb36000860182610a70565b5060208301518482036020860152610ccb8282610b03565b9150506040830151610ce06040860182610ceb565b508091505092915050565b610cf48161100c565b82525050565b610d038161100c565b82525050565b6000610d1482610c81565b9150819050919050565b60006020820190508181036000830152610d388184610a8e565b905092915050565b60006020820190508181036000830152610d5a8184610b3c565b905092915050565b60006040820190508181036000830152610d7c8185610b3c565b9050610d8b6020830184610a7f565b9392505050565b60006060820190508181036000830152610dac8186610b3c565b9050610dbb6020830185610a7f565b8181036040830152610dcd8184610b3c565b9050949350505050565b60006040820190508181036000830152610df18185610b3c565b9050610e006020830184610cfa565b9392505050565b60006020820190508181036000830152610e2081610b75565b9050919050565b60006020820190508181036000830152610e4081610bb5565b9050919050565b60006020820190508181036000830152610e6081610c1b565b9050919050565b6000602082019050610e7c6000830184610cfa565b92915050565b6000604082019050610e976000830185610cfa565b8181036020830152610ea98184610b3c565b90509392505050565b6000604051905081810181811067ffffffffffffffff82111715610ed957610ed8611148565b5b8060405250919050565b600067ffffffffffffffff821115610efe57610efd611148565b5b601f19601f8301169050602081019050919050565b6000819050602082019050919050565b600081519050919050565b600081519050919050565b6000602082019050919050565b600082825260208201905092915050565b600081905092915050565b600082825260208201905092915050565b600082825260208201905092915050565b6000610f8f8261100c565b9150610f9a8361100c565b9250827fffffffffffffffffffffffffffffffffffffffffffffffffffffffffffffffff03821115610fcf57610fce6110bb565b5b828201905092915050565b6000610fe582610fec565b9050919050565b600073ffffffffffffffffffffffffffffffffffffffff82169050919050565b6000819050919050565b82818337600083830152505050565b60005b83811015611043578082015181840152602081019050611028565b83811115611052576000848401525b50505050565b6000600282049050600182168061107057607f821691505b6020821081141561108457611083611119565b5b50919050565b60006110958261100c565b91506110a08361100c565b9250826110b0576110af6110ea565b5b828206905092915050565b7f4e487b7100000000000000000000000000000000000000000000000000000000600052601160045260246000fd5b7f4e487b7100000000000000000000000000000000000000000000000000000000600052601260045260246000fd5b7f4e487b7100000000000000000000000000000000000000000000000000000000600052602260045260246000fd5b7f4e487b7100000000000000000000000000000000000000000000000000000000600052604160045260246000fd5b6000601f19601f8301169050919050565b61119181610fda565b811461119c57600080fd5b5056fea2646970667358221220dddbe7db7e500f318fe1e816364fadb685e4c7393326500b986c1c939fe4113d64736f6c63430008000033",
  "linkReferences": {},
  "deployedLinkReferences": {}
}